{
  "_format": "hh-sol-artifact-1",
  "contractName": "MFAAuthLogger",
  "sourceName": "contracts/MFAAuthLogger.sol",
  "abi": [
    {
      "inputs": [
        {
          "internalType": "string",
          "name": "userId",
          "type": "string"
        },
        {
          "internalType": "string",
          "name": "action",
          "type": "string"
        }
      ],
      "name": "addLog",
      "outputs": [],
      "stateMutability": "nonpayable",
      "type": "function"
    },
    {
      "inputs": [],
      "name": "getLogs",
      "outputs": [
        {
          "components": [
            {
              "internalType": "string",
              "name": "userId",
              "type": "string"
            },
            {
              "internalType": "string",
              "name": "action",
              "type": "string"
            },
            {
              "internalType": "uint256",
              "name": "timestamp",
              "type": "uint256"
            }
          ],
          "internalType": "struct MFAAuthLogger.Log[]",
          "name": "",
          "type": "tuple[]"
        }
      ],
      "stateMutability": "view",
      "type": "function"
    },
    {
      "inputs": [
        {
          "internalType": "uint256",
          "name": "",
          "type": "uint256"
        }
      ],
      "name": "logs",
      "outputs": [
        {
          "internalType": "string",
          "name": "userId",
          "type": "string"
        },
        {
          "internalType": "string",
          "name": "action",
          "type": "string"
        },
        {
          "internalType": "uint256",
          "name": "timestamp",
          "type": "uint256"
        }
      ],
      "stateMutability": "view",
      "type": "function"
    }
  ],
  "bytecode": "0x608060405234801561001057600080fd5b50610bbb806100206000396000f3fe608060405234801561001057600080fd5b50600436106100415760003560e01c8063a273079a14610046578063e79899bd14610062578063fe290ccb14610094575b600080fd5b610060600480360381019061005b9190610565565b6100b2565b005b61007c60048036038101906100779190610613565b610134565b60405161008b939291906106ce565b60405180910390f35b61009c61027e565b6040516100a99190610885565b60405180910390f35b60006040518060600160405280848152602001838152602001428152509080600181540180825580915050600190039060005260206000209060030201600090919091909150600082015181600001908161010d9190610ab3565b5060208201518160010190816101239190610ab3565b506040820151816002015550505050565b6000818154811061014457600080fd5b9060005260206000209060030201600091509050806000018054610167906108d6565b80601f0160208091040260200160405190810160405280929190818152602001828054610193906108d6565b80156101e05780601f106101b5576101008083540402835291602001916101e0565b820191906000526020600020905b8154815290600101906020018083116101c357829003601f168201915b5050505050908060010180546101f5906108d6565b80601f0160208091040260200160405190810160405280929190818152602001828054610221906108d6565b801561026e5780601f106102435761010080835404028352916020019161026e565b820191906000526020600020905b81548152906001019060200180831161025157829003601f168201915b5050505050908060020154905083565b60606000805480602002602001604051908101604052809291908181526020016000905b8282101561040257838290600052602060002090600302016040518060600160405290816000820180546102d5906108d6565b80601f0160208091040260200160405190810160405280929190818152602001828054610301906108d6565b801561034e5780601f106103235761010080835404028352916020019161034e565b820191906000526020600020905b81548152906001019060200180831161033157829003601f168201915b50505050508152602001600182018054610367906108d6565b80601f0160208091040260200160405190810160405280929190818152602001828054610393906108d6565b80156103e05780601f106103b5576101008083540402835291602001916103e0565b820191906000526020600020905b8154815290600101906020018083116103c357829003601f168201915b50505050508152602001600282015481525050815260200190600101906102a2565b50505050905090565b6000604051905090565b600080fd5b600080fd5b600080fd5b600080fd5b6000601f19601f8301169050919050565b7f4e487b7100000000000000000000000000000000000000000000000000000000600052604160045260246000fd5b61047282610429565b810181811067ffffffffffffffff821117156104915761049061043a565b5b80604052505050565b60006104a461040b565b90506104b08282610469565b919050565b600067ffffffffffffffff8211156104d0576104cf61043a565b5b6104d982610429565b9050602081019050919050565b82818337600083830152505050565b6000610508610503846104b5565b61049a565b90508281526020810184848401111561052457610523610424565b5b61052f8482856104e6565b509392505050565b600082601f83011261054c5761054b61041f565b5b813561055c8482602086016104f5565b91505092915050565b6000806040838503121561057c5761057b610415565b5b600083013567ffffffffffffffff81111561059a5761059961041a565b5b6105a685828601610537565b925050602083013567ffffffffffffffff8111156105c7576105c661041a565b5b6105d385828601610537565b9150509250929050565b6000819050919050565b6105f0816105dd565b81146105fb57600080fd5b50565b60008135905061060d816105e7565b92915050565b60006020828403121561062957610628610415565b5b6000610637848285016105fe565b91505092915050565b600081519050919050565b600082825260208201905092915050565b60005b8381101561067a57808201518184015260208101905061065f565b60008484015250505050565b600061069182610640565b61069b818561064b565b93506106ab81856020860161065c565b6106b481610429565b840191505092915050565b6106c8816105dd565b82525050565b600060608201905081810360008301526106e88186610686565b905081810360208301526106fc8185610686565b905061070b60408301846106bf565b949350505050565b600081519050919050565b600082825260208201905092915050565b6000819050602082019050919050565b600082825260208201905092915050565b600061075b82610640565b610765818561073f565b935061077581856020860161065c565b61077e81610429565b840191505092915050565b610792816105dd565b82525050565b600060608301600083015184820360008601526107b58282610750565b915050602083015184820360208601526107cf8282610750565b91505060408301516107e46040860182610789565b508091505092915050565b60006107fb8383610798565b905092915050565b6000602082019050919050565b600061081b82610713565b610825818561071e565b9350836020820285016108378561072f565b8060005b85811015610873578484038952815161085485826107ef565b945061085f83610803565b925060208a0199505060018101905061083b565b50829750879550505050505092915050565b6000602082019050818103600083015261089f8184610810565b905092915050565b7f4e487b7100000000000000000000000000000000000000000000000000000000600052602260045260246000fd5b600060028204905060018216806108ee57607f821691505b602082108103610901576109006108a7565b5b50919050565b60008190508160005260206000209050919050565b60006020601f8301049050919050565b600082821b905092915050565b6000600883026109697fffffffffffffffffffffffffffffffffffffffffffffffffffffffffffffffff8261092c565b610973868361092c565b95508019841693508086168417925050509392505050565b6000819050919050565b60006109b06109ab6109a6846105dd565b61098b565b6105dd565b9050919050565b6000819050919050565b6109ca83610995565b6109de6109d6826109b7565b848454610939565b825550505050565b600090565b6109f36109e6565b6109fe8184846109c1565b505050565b5b81811015610a2257610a176000826109eb565b600181019050610a04565b5050565b601f821115610a6757610a3881610907565b610a418461091c565b81016020851015610a50578190505b610a64610a5c8561091c565b830182610a03565b50505b505050565b600082821c905092915050565b6000610a8a60001984600802610a6c565b1980831691505092915050565b6000610aa38383610a79565b9150826002028217905092915050565b610abc82610640565b67ffffffffffffffff811115610ad557610ad461043a565b5b610adf82546108d6565b610aea828285610a26565b600060209050601f831160018114610b1d5760008415610b0b578287015190505b610b158582610a97565b865550610b7d565b601f198416610b2b86610907565b60005b82811015610b5357848901518255600182019150602085019450602081019050610b2e565b86831015610b705784890151610b6c601f891682610a79565b8355505b6001600288020188555050505b50505050505056fea2646970667358221220aea898dd17e2251df78225333d614b7a40bb941c8533069f289cb38e800338db64736f6c63430008140033",
  "linkReferences": {},
  "deployedLinkReferences": {}
}